{"abi":[{"type":"constructor","inputs":[],"stateMutability":"nonpayable"},{"type":"function","name":"deposit","inputs":[],"outputs":[],"stateMutability":"payable"},{"type":"function","name":"getBalance","inputs":[{"name":"account","type":"address","internalType":"SAddress"}],"outputs":[{"name":"","type":"uint256","internalType":"uint256"}],"stateMutability":"view"},{"type":"function","name":"getMyBalance","inputs":[],"outputs":[{"name":"","type":"uint256","internalType":"uint256"}],"stateMutability":"view"},{"type":"function","name":"sendTransaction","inputs":[{"name":"recipient","type":"address","internalType":"SAddress"},{"name":"amount","type":"uint256","internalType":"SUint256"},{"name":"encryptedSMS","type":"bytes","internalType":"bytes"}],"outputs":[],"stateMutability":"nonpayable"},{"type":"function","name":"withdraw","inputs":[{"name":"amountToWithdraw","type":"uint256","internalType":"uint256"}],"outputs":[],"stateMutability":"nonpayable"},{"type":"event","name":"TransactionConfirmed","inputs":[{"name":"sender","type":"address","indexed":true,"internalType":"SAddress"},{"name":"recipient","type":"address","indexed":true,"internalType":"SAddress"},{"name":"amount","type":"uint256","indexed":false,"internalType":"SUint256"},{"name":"timestamp","type":"uint256","indexed":false,"internalType":"uint256"},{"name":"transactionId","type":"bytes32","indexed":false,"internalType":"bytes32"}],"anonymous":false}],"bytecode":{"object":"0x6080604052348015600e575f5ffd5b5060015f81905550610e53806100235f395ff3fe608060405260043610610049575f3560e01c80632e1a7d4d1461004d5780634c73890914610075578063d0e30db01461009f578063e5e288e5146100a9578063f8b2cb4f146100d1575b5f5ffd5b348015610058575f5ffd5b50610073600480360381019061006e919061084a565b61010d565b005b348015610080575f5ffd5b506100896103ec565b6040516100969190610884565b60405180910390f35b6100a7610435565b005b3480156100b4575f5ffd5b506100cf60048036038101906100ca9190610982565b610522565b005b3480156100dc575f5ffd5b506100f760048036038101906100f291906109f3565b61078d565b6040516101049190610884565b60405180910390f35b60025f5403610151576040517f08c379a000000000000000000000000000000000000000000000000000000000815260040161014890610a78565b60405180910390fd5b60025f819055505f3390505f60015f8373ffffffffffffffffffffffffffffffffffffffff1673ffffffffffffffffffffffffffffffffffffffff1681526020019081526020015f205490505f60025f8473ffffffffffffffffffffffffffffffffffffffff1673ffffffffffffffffffffffffffffffffffffffff1681526020019081526020015f2090505f5f90505f5f90505b82805490508110156102fb5782818154811061020557610204610a96565b5b905f5260205f2090600202016001015442106102e75782818154811061022e5761022d610a96565b5b905f5260205f2090600202015f0154826102489190610af0565b9150826001848054905061025c9190610b23565b8154811061026d5761026c610a96565b5b905f5260205f20906002020183828154811061028c5761028b610a96565b5b905f5260205f2090600202015f820154815f015560018201548160010155905050828054806102be576102bd610b56565b5b600190038181905f5260205f2090600202015f5f82015f9055600182015f9055505090556102f6565b80806102f290610b83565b9150505b6101e6565b5080836103089190610af0565b92508483101561034d576040517f08c379a000000000000000000000000000000000000000000000000000000000815260040161034490610c14565b60405180910390fd5b84836103599190610b23565b60015f8673ffffffffffffffffffffffffffffffffffffffff1673ffffffffffffffffffffffffffffffffffffffff1681526020019081526020015f20819055503373ffffffffffffffffffffffffffffffffffffffff166108fc8690811502906040515f60405180830381858888f193505050501580156103dd573d5f5f3e3d5ffd5b505050505060015f8190555050565b5f5f33905060015f8273ffffffffffffffffffffffffffffffffffffffff1673ffffffffffffffffffffffffffffffffffffffff1681526020019081526020015f205491505090565b60025f5403610479576040517f08c379a000000000000000000000000000000000000000000000000000000000815260040161047090610a78565b60405180910390fd5b60025f819055505f3390505f60015f8373ffffffffffffffffffffffffffffffffffffffff1673ffffffffffffffffffffffffffffffffffffffff1681526020019081526020015f205490505f34905080826104d59190610af0565b60015f8573ffffffffffffffffffffffffffffffffffffffff1673ffffffffffffffffffffffffffffffffffffffff1681526020019081526020015f208190555050505060015f81905550565b60025f5403610566576040517f08c379a000000000000000000000000000000000000000000000000000000000815260040161055d90610a78565b60405180910390fd5b60025f819055505f3390505f60015f8373ffffffffffffffffffffffffffffffffffffffff1673ffffffffffffffffffffffffffffffffffffffff1681526020019081526020015f20549050848110156105f5576040517f08c379a00000000000000000000000000000000000000000000000000000000081526004016105ec90610c7c565b60405180910390fd5b84816106019190610b23565b60015f8473ffffffffffffffffffffffffffffffffffffffff1673ffffffffffffffffffffffffffffffffffffffff1681526020019081526020015f20819055505f6040518060400160405280878152602001610708426106629190610af0565b815250905060025f8873ffffffffffffffffffffffffffffffffffffffff1673ffffffffffffffffffffffffffffffffffffffff1681526020019081526020015f2081908060018154018082558091505060019003905f5260205f2090600202015f909190919091505f820151815f01556020820151816001015550505f3388884289896040516020016106fb96959493929190610d3b565b6040516020818303038152906040528051906020012090508773ffffffffffffffffffffffffffffffffffffffff168473ffffffffffffffffffffffffffffffffffffffff167f742f207ef3edf8affe8cc1532a607a7f41b4cb9cedee0f873c6ce61f09c7414589428560405161077493929190610de8565b60405180910390a35050505060015f8190555050505050565b5f3373ffffffffffffffffffffffffffffffffffffffff168273ffffffffffffffffffffffffffffffffffffffff16036108065760015f8373ffffffffffffffffffffffffffffffffffffffff1673ffffffffffffffffffffffffffffffffffffffff1681526020019081526020015f2054905061080a565b5f90505b919050565b5f5ffd5b5f5ffd5b5f819050919050565b61082981610817565b8114610833575f5ffd5b50565b5f8135905061084481610820565b92915050565b5f6020828403121561085f5761085e61080f565b5b5f61086c84828501610836565b91505092915050565b61087e81610817565b82525050565b5f6020820190506108975f830184610875565b92915050565b5f73ffffffffffffffffffffffffffffffffffffffff82169050919050565b5f6108c68261089d565b9050919050565b6108d6816108bc565b81146108e0575f5ffd5b50565b5f813590506108f1816108cd565b92915050565b61090081610817565b811461090a575f5ffd5b50565b5f8135905061091b816108f7565b92915050565b5f5ffd5b5f5ffd5b5f5ffd5b5f5f83601f84011261094257610941610921565b5b8235905067ffffffffffffffff81111561095f5761095e610925565b5b60208301915083600182028301111561097b5761097a610929565b5b9250929050565b5f5f5f5f6060858703121561099a5761099961080f565b5b5f6109a7878288016108e3565b94505060206109b88782880161090d565b935050604085013567ffffffffffffffff8111156109d9576109d8610813565b5b6109e58782880161092d565b925092505092959194509250565b5f60208284031215610a0857610a0761080f565b5b5f610a15848285016108e3565b91505092915050565b5f82825260208201905092915050565b7f5265656e7472616e742063616c6c0000000000000000000000000000000000005f82015250565b5f610a62600e83610a1e565b9150610a6d82610a2e565b602082019050919050565b5f6020820190508181035f830152610a8f81610a56565b9050919050565b7f4e487b71000000000000000000000000000000000000000000000000000000005f52603260045260245ffd5b7f4e487b71000000000000000000000000000000000000000000000000000000005f52601160045260245ffd5b5f610afa82610817565b9150610b0583610817565b9250828201905080821115610b1d57610b1c610ac3565b5b92915050565b5f610b2d82610817565b9150610b3883610817565b9250828203905081811115610b5057610b4f610ac3565b5b92915050565b7f4e487b71000000000000000000000000000000000000000000000000000000005f52603160045260245ffd5b5f610b8d82610817565b91507fffffffffffffffffffffffffffffffffffffffffffffffffffffffffffffffff8203610bbf57610bbe610ac3565b5b600182019050919050565b7f496e73756666696369656e7420756e6c6f636b65642066756e647300000000005f82015250565b5f610bfe601b83610a1e565b9150610c0982610bca565b602082019050919050565b5f6020820190508181035f830152610c2b81610bf2565b9050919050565b7f496e73756666696369656e742066756e647300000000000000000000000000005f82015250565b5f610c66601283610a1e565b9150610c7182610c32565b602082019050919050565b5f6020820190508181035f830152610c9381610c5a565b9050919050565b5f8160601b9050919050565b5f610cb082610c9a565b9050919050565b5f610cc182610ca6565b9050919050565b610cd9610cd4826108bc565b610cb7565b82525050565b5f819050919050565b610cf9610cf482610817565b610cdf565b82525050565b5f81905092915050565b828183375f83830152505050565b5f610d228385610cff565b9350610d2f838584610d09565b82840190509392505050565b5f610d468289610cc8565b601482019150610d568288610cc8565b601482019150610d668287610ce8565b602082019150610d768286610ce8565b602082019150610d87828486610d17565b9150819050979650505050505050565b5f819050919050565b5f610dba610db5610db084610817565b610d97565b610817565b9050919050565b610dca81610da0565b82525050565b5f819050919050565b610de281610dd0565b82525050565b5f606082019050610dfb5f830186610dc1565b610e086020830185610875565b610e156040830184610dd9565b94935050505056fea2646970667358221220211c1fc441dd136cba5d9478de16f6af6ab78a06673bb64abb501feef7d905f964736f6c634300081c0033","linkReferences":{}},"methodIdentifiers":{"deposit()":"d0e30db0","getBalance(address)":"f8b2cb4f","getMyBalance()":"4c738909","sendTransaction(address,uint256,bytes)":"e5e288e5","withdraw(uint256)":"2e1a7d4d"},"id":0}